:100CC90061324770356E38694B3739670037486983
:100CD9006537326E36466C337700394F326E496468
:100CE900304B456D3233006B3230646C3275476E70
:100CF90034396E002E005374617274696E67002076
:100D0900504C454153455F5F564552494659005934
:100D19004F55522049443A00537769706520796FDD
:100D2900757220636172643A2000444F4F525F4FDD
:100D390050454E494E4700444F4F525F434C4F5325
:100D4900494E470043414E4E4F542056455249465D
:100D5900592049440054525920414741494E2100E4
:0A0D6900564552494659494E4700CD
:100F4800022100000C15FF0CC9FF0CD6FF0CE3FFB3
:050F58000CF001140083
:0C0F9300759850758920758DFDD28E2256
:080DFF007D007F007E007C40B6
:100E07008F318E308D2F8C2EE4F521F5227F007ED9
:100E1700C07DBE7C44AB31AA30A92FA82E12080092
:100E2700C004C005C006C007AC21AD22E412098486
:100E3700A804A905AA06AB07D007D006D005D00499
:100E4700120906500A0522E52270C2052180BE223A
:0B0F9F003098FD859914C298AF142211
:100F5E008F90D2A5D2A77F8F7EC27D757C3C120E5C
:040F6E0007C2A722ED
:100F72008F90C2A5D2A77FCD7ECC7D4C7C3E120E37
:040F820007C2A722D9
:100F2D00C2A67F38120F727F01120F727F10120F3F
:0B0F3D00727F0C120F727F80020F7297
:100EF0008B248A2589267F007E007D007C3F120E90
:100F000007AB24AA25A926752C00752D027D017C2E
:100F100000120E66120E57120E57120E577BFF7AF2
:0D0F20000C79FDE4F52CF52DFDFC020E66AC
:100BD800120F2D120F937BFF7A0C79FF120EF07F04
:100BE800337E337D337C3F120E077BFF7A0D790805
:100BF800E4F52CF52D7D01FC120E667FC4120F72F0
:100C08007BFF7A0D7918752C00752D03E4FDFC1215
:100C18000E667BFF7A0D7921752C00752D047D01F8
:100C28007C00120E66E4F521F522120F9F74082548
:100C380022F8A6070522E52270020521C3940CE5D7
:100C480021940040E574082522F8E4F6120EA5EF79
:100C58004E60427BFF7A0D7933120EF0E4FDFC7F83
:100C680001FE120F86120DFFE4FDFCFFFE120F8637
:100C78007DA0120E017BFF7A0D7940120EF07D01E6
:100C88007C00E4FFFE120F86120DFFE4FDFCFFFE60
:100C9800120F8661E77BFF7A0D794D752C00752D53
:100CA800027D017C00120E667FC3120F727BFF7AF1
:100CB8000D795E752C00752D04E4FDFC120E66613D
:010CC800E744
:0F0E57007BFF7A0C79FD752C00752D01E4FDFCF5
:100E66008B278A288929C3ED9401EC6480948040FD
:100E7600057F01120F72AB27AA28A929120A07605B
:100E8600130529E5297002052814F9120A07FF122D
:0F0E96000F5E80E2AC2CAD2DE4120984020E0732
:100EA500E4F5237BFF7A0D7969120EF0E4F523C38F
:100EB500E523940474809480502DE52375F003A4F4
:100EC5002415F8860308E6FA08E6F978087C007D1B
:100ED500007E007F0C120BB4EF3395E04F7004FEDB
:0A0EE5007F0122052380C8E4FEFF10
:010EEF0022E0
:0D0F8600EE4F24FF92A0EC4D24FF92A1221B
:10080000EC4D6011E8497017ED33EC3304600DE4F2
:10081000FCFFFEFD22E933E8330470F80209F2120E
:1008200009BD58046009E4CC24815006285009020F
:1008300009FC2840030209F9C0E0EB4A7044B98082
:1008400006D0E0FB0209E8EF4E701CBD8008EBFF0C
:10085000EAFEE9FD80EBE98DF0A4FEE5F00208E98F
:10086000E9CDF9EAFEEBFFEF89F0A4FCE5F0CE89D3
:10087000F0A42EFFE435F0CD89F0A42DFEE435F090
:100880008067EF4E7005BD80D780C3EF8BF0A4ACBE
:10089000F0EE8BF0A42CFCE435F0F8EF8AF0A42CF9
:1008A000E5F038FCE433CB8DF0A42CFCE5F03BF80C
:1008B000EE8AF0A42CFCE5F038F8E433CF89F0A4FC
:1008C0002CFCE5F038CF3400CE89F0A42FFFE5F002
:1008D0003EFEE433C98DF0A42EFEE5F039CD8AF05A
:1008E000A42FFFE5F03EFEE43DFD33D0E0FB5007D2
:1008F0000BBB000F0209FCEC2CFCEF33FFEE33FEC8
:06090000ED33FD0209D4F5
:1009060074F8CC6480CCC86480C8F58204604FC398
:10091600EB9FF5F0EA9E42F0E99D42F0E89C45F037
:10092600603C501DE5825FFFE582D313CB5BCBF4C1
:100936002B5582FB50280ABA002409B900200880EA
:100946001DE5825BFBE582D313CF5FCFF4C3132F84
:100956005582FF50090EBE00050DBD00010CC3EB0C
:100966009FF5F0EA9E42F0E99D42F0E89C45F06072
:0909760007CC4820E701B3EC2294
:10097F0075F020800E75F010800575F0087D007EF3
:10098F00007F003392D530D503120A20EC3340108C
:10099F00EF33FFEE33FEED33FDEC33FCD5F0ED22FC
:0E09AF00E5F0247EA2D513CC92E7CDCEFF2238
:1009BD00E9D2E7C933E833F892D5EDD2E7CD33EC80
:0709CD0033FC5002B2D522F9
:1009D400EC30E7100FBF000C0EBE00080DBD000484
:1009E4000BEB6014A2D5EB13FCED92E7FD2274FF30
:1009F400FCFDFEFF22E480F8A2D574FF13FC7D8089
:030A0400E480EF9C
:03000000020D737B
:0C0D7300787FE4F6D8FD758131020DBADE
:100A0700BB010689828A83E0225002E722BBFE02ED
:090A1700E32289828A83E4932220
:0E0A2000C3E49FFFE49EFEE49DFDE49CFC22E7
:100A2E00E3F5F009E208B5F06BDFF58067E3F5F06A
:100A3E0009E608B5F05EDFF5805A87F009E608B5DD
:100A4E00F052DFF6804E87F009E208B5F046DFF689
:100A5E00804288828C8387F009E0A3B5F036DFF6FA
:100A6E00803288828C8387F009E493A3B5F025DF6A
:100A7E00F5802188828C83E3F5F009E0A3B5F014AC
:100A8E00DFF5801088828C83E3F5F009E493A3B53B
:100A9E00F002DFF4020B5D808780E9809080D480C5
:100AAE003E8015806E807E809D80B7808D80A38075
:100ABE00518074803C020B6989828A83ECFAE4933C
:100ACE00F5F0A3C8C582C8CCC583CCE493A3C8C532
:100ADE0082C8CCC583CCB5F076DFE3DEE1807089C9
:100AEE00828A83E493F5F0A3E208B5F062DFF48026
:100AFE005E89828A83E0F5F0A3E608B5F051DFF552
:100B0E00804D89828A83E0F5F0A3E208B5F040DFDC
:100B1E00F5803C89828A83E493F5F0A3E608B5F06C
:100B2E002EDFF4802A8002805789828A83ECFAE4D1
:100B3E0093F5F0A3C8C582C8CCC583CCE0A3C8C5C5
:100B4E0082C8CCC583CCB5F006DFE4DEE280007F40
:100B5E00FFB5F0020F2240027F012289828A83ECC8
:100B6E00FAE0F5F0A3C8C582C8CCC583CCE0A3C813
:100B7E00C582C8CCC583CCB5F0D5DFE5DEE380CF2A
:100B8E0089828A83ECFAE0F5F0A3C8C582C8CCC589
:100B9E0083CCE493A3C8C582C8CCC583CCB5F0AFD3
:100BAE00DFE4DEE280A988F0EF60010E4E60ABED6F
:100BBE002402B404005098F582EB2402B4040050D1
:0A0BCE008E2323458223900AA573AD
:100D7F00020BD8E493A3F8E493A34003F68001F2A7
:100D8F0008DFF48029E493A3F85407240CC8C33375
:100D9F00C4540F4420C8834004F456800146F6DF44
:100DAF00E4800B0102040810204080900F48E47E7D
:100DBF00019360BCA3FF543F30E509541FFEE49339
:100DCF00A360010ECF54C025E060A840B8E493A300
:100DDF00FAE493A3F8E493A3C8C582C8CAC583CA2B
:100DEF00F0A3C8C582C8CAC583CADFE9DEE780BEE3
:010F5D000093
:00000001FF
